:100000002CC400000C9475210C944A210C941F21DF
:100010000C94F4200C94C9200C949E200C94732012
:100020000C9448204BC4000049C4000047C40000A1
:1000300045C4000043C4000041C400000C94CB2818
:100040003DC400003BC4000039C4000037C40000B8
:1000500035C4000033C4000031C400000C94953A4C
:100060002DC400000C94B4220C948B2227C40000F1
:1000700025C4000023C4000021C400001FC40000E8
:100080001DC400001BC4000019C4000017C40000F8
:1000900015C4000013C4000011C400000C945729BB
:1000A0000DC400000BC4000009C4000007C4000018
:1000B00005C4000003C4000001C40000FFC3000029
:1000C000FDC30000FBC30000F9C300000C945522DF
:1000D0000C942C22F3C30000F1C30000EFC3000016
:1000E000EDC30000C639C939B839BC39C039003A46
:1000F000CD39D139D739DB39DF39E539E939ED394E
:10010000003AF339F739FB3900407A10F35A00A06E
:10011000724E18090010A5D4E80000E876481700D0
:1001200000E40B54020000CA9A3B000000E1F50510
:10013000000080969800000040420F000000A0865A
:1001400001000000102700000000E803000000008C
:100150006400000000000A00000000000100000030
:1001600000002C76D888DC674F0823DFC1DFAE594A
:10017000E1B1B796E5E3E453C63AE651997696E8DD
:10018000E6C28426EB898C9B62ED407C6FFCEFBC61
:100190009C9F40F2BAA56FA5F490055A2AF75C938C
:1001A0006B6CF9676DC11BFCE0E40D47FEF520E6C2
:1001B000B500D0ED902E0300943577050080841EA5
:1001C000080000204E0A000000C80C333333330F00
:1001D000986E12831141EF8D2114893BE65516CF9D
:1001E000FEE6DB18D1844B381BF77C1D901DA4BBA9
:1001F000E424203284725E228100C9F124ECA1E55E
:100200003D2753656E736F722064652048756D6578
:1002100064616420792054656D70657261747572D3
:1002200061204F6B00000020002300260029002CD5
:10023000002F003200000100000301060109010047
:10024000002200250028002B002E0031003400027F
:10025000010000050108010B01050505050705085A
:10026000080808020202020A0A0808040404040139
:10027000010101010101010303030303030303045B
:100280000707070C0C0C0C0C0C0C0C0202020206EB
:10029000060606060606060B0B0B0B0B0B0B0B01DB
:1002A0000210202008081020401020408002010287
:1002B000010804020101020408102040808040204F
:1002C000100804020180040201804020100804028A
:1002D0000108040201010204081020408001020408
:1002E00008102040807C3C3E5E2B3D3F2F5B5D3BF9
:1002F0002C2A225C0000000000003E5B4F5B3E3E6B
:100300006B4F6B3E1C3E7C3E1C183C7E3C181C57C1
:100310007D571C1C5E7F5E1C00183C1800FFE7C365
:10032000E7FF0018241800FFE7DBE7FF30483A0634
:100330000E2629792926407F050507407F05253FA0
:100340005A3CE73C5A7F3E1C1C08081C1C3E7F148C
:10035000227F22145F5F005F5F06097F017F0066D6
:1003600089956A606060606094A2FFA29408047E30
:10037000040810207E201008082A1C08081C2A08DF
:10038000081E101010100C1E0C1E0C30383E383099
:10039000060E3E0E06000000000000005F00000098
:1003A00007000700147F147F14242A7F2A122313C6
:1003B00008646236495620500008070300001C22DA
:1003C00041000041221C002A1C7F1C2A08083E080C
:1003D000080080703000080808080800006060000D
:1003E00020100804023E5149453E00427F40007201
:1003F000494949462141494D331814127F10274578
:100400004545393C4A494931412111090736494995
:100410004936464949291E000014000000403400B6
:10042000000008142241141414141400412214086A
:1004300002015909063E415D594E7C1211127C7F22
:10044000494949363E414141227F4141413E7F4930
:100450004949417F090909013E414151737F08081B
:10046000087F00417F41002040413F017F08142266
:10047000417F404040407F021C027F7F0408107F84
:100480003E4141413E7F090909063E4151215E7FBF
:1004900009192946264949493203017F01033F4092
:1004A00040403F1F2040201F3F4038403F6314081A
:1004B000146303047804036159494D43007F4141AB
:1004C000410204081020004141417F04020102045E
:1004D0004040404040000307080020545478407FCB
:1004E000284444383844444428384444287F385405
:1004F00054541800087E090218A4A49C787F0804AC
:10050000047800447D40002040403D007F10284496
:100510000000417F40007C047804787C0804047863
:100520003844444438FC1824241818242418FC7C2B
:1005300008040408485454542404043F44243C4010
:1005400040207C1C2040201C3C4030403C44281073
:1005500028444C9090907C4464544C4400083641AC
:10056000000000770000004136080002010204028A
:100570003C2623263C1EA1A161123A4040207A3835
:100580005454555921555579412254547842215596
:1005900054784020545579400C1E527212395555EA
:1005A0005559395454545939555454580000457CC0
:1005B000410002457D420001457C407D1211127DC3
:1005C000F0282528F07C545545002054547C547C58
:1005D0000A097F4932494949323A4444443A324A45
:1005E0004848303A4141217A3A42402078009DA063
:1005F000A07D3D4242423D3D4040403D3C24FF24E1
:1006000024487E4943662B2FFC2F2BFF0929F62017
:10061000C0887E090320545479410000447D413054
:1006200048484A32384040227A007A0A0A727D0DE0
:1006300019317D2629292F28262929292630484D98
:100640004020380808080808080808382F10C8ACE7
:10065000BA2F102834FA00007B000008142A142254
:1006600022142A14085500550055AA55AA55AAFF68
:1006700055FF55FF000000FF00101010FF0014147C
:1006800014FF001010FF00FF1010F010F0141414ED
:10069000FC001414F700FF0000FF00FF1414F40422
:1006A000FC141417101F10101F101F1414141F0017
:1006B000101010F0000000001F101010101F10107C
:1006C0001010F010000000FF10101010101010108B
:1006D00010FF10000000FF140000FF00FF00001FCB
:1006E00010170000FC04F414141710171414F40469
:1006F000F40000FF00F714141414141414F700F796
:10070000141414171410101F101F141414F41410C0
:1007100010F010F000001F101F0000001F14000058
:1007200000FC140000F010F01010FF10FF1414145F
:10073000FF141010101F00000000F010FFFFFFFF5B
:10074000FFF0F0F0F0F0FFFFFF0000000000FFFFFF
:100750000F0F0F0F0F3844443844FC4A4A4A347E86
:1007600002020606027E027E026355494163384456
:10077000443C04407E201E2006027E020299A5E72A
:10078000A5991C2A492A1C4C7201724C304A4D4DC5
:10079000303048784830BC625A463D3E49494900AD
:1007A0007E0101017E2A2A2A2A2A44445F444440C9
:1007B000514A444040444A51400000FF0103E08058
:1007C000FF000008086B6B083612362436060F0946
:1007D0000F06000018180000001010003040FF0144
:1007E00001001F01011E00191D1712003C3C3C3C7A
:1007F000000000000000002100240027002A002D36
:10080000003000330001010000040107010A01006B
:10081000000A0B02090C0D0E08070304010000007A
:1008200000000000000000000000000000000000C8
:100830000000000000000000000000121110000085
:1008400000000000000000000000000000000000A8
:100850000000000000006D4B784D11241FBECFEF4B
:10086000D1E2DEBFCDBF00E00CBF29E0A6E7B4E0D7
:1008700001C01D92A838B207E1F714E0A0E0B2E091
:10088000EEEBF9EA00E00BBF02C007900D92A6372D
:10089000B107D9F714E0CCE2D4E000E006C021971C
:1008A0000109802FFE010E947E52CB32D10780E0E9
:1008B0000807A9F70E94733F0C94CE54A1CB8F92E6
:1008C0009F92BF92CF92DF92EF92FF920F931F936E
:1008D000CF93DF93EC01CB017A01E98DFA8D508142
:1008E0004DA145234083488D411163C54D89423058
:1008F00089F0433021F1413081F5AFEEB0E0AD0138
:10090000401B510B4B01AE19BF0989019D017B01B1
:10091000CA0125C04FEE50E0BA01621B730B9A0169
:10092000281B390B8FE391E0AC01401B510B8C016C
:100930000E191F094801D9017A01CB0110C0EFE35C
:10094000F1E0AF01421B530B4F01861A970AD70102
:1009500098018401C7017A0102C04701DB016B8D58
:100960007C8DFB0150814EA14523408340910201C3
:1009700047784093020140910201409302014EB139
:10098000477C4EB94EB14EB9A59844B344BB6D8D6A
:100990007E8DFB0150814FA1452340836D8D7E8D5F
:1009A000FB0150814BA1452B4083409102014778C8
:1009B00040930201409102014860409302014EB110
:1009C000477C4EB94EB14EB9A598A59A6D8D7E8DD6
:1009D000FB0150814FA1452340836D8D7E8DFB012E
:1009E00050814BA1452B4083492F552747FD5A95F0
:1009F000CB8CDC8CF60170816AA1672B60836091DF
:100A00000201677860930201B0900201BA01607C34
:100A100077276B0163E0D594C7946A95E1F7BA0133
:100A200063707727E5E0660F771FEA95E1F76C2999
:100A30006B29609302016EB1677C6EB9BEB0BA01DA
:100A40006C7077276B01CC0CDD1CCC0CDD1CBA0163
:100A50006072772775956795759567956C296B29F1
:100A60006EB9A59864B340715527440F551F462BA6
:100A700044BB6D8D7E8DFB0150814FA1452340838A
:100A80006D8D7E8DFB0150814BA1452B40834091A4
:100A9000020147784093020160910201AC01407C61
:100AA00055276A0143E0D594C7944A95E1F7AC0114
:100AB0004370552775E0440F551F7A95E1F74C298F
:100AC000462B409302014EB1477C4EB96EB1AC014A
:100AD0004C7055276A01CC0CDD1CCC0CDD1CAC0124
:100AE0004072552755954795559547954C29462B66
:100AF0004EB9A59864B380719927880F991F862BEA
:100B000084BB4D8D5E8DFA0190818FA189238083F6
:100B10004D8D5E8DFA0190818BA1892B80834B8D49
:100B20005C8DFA0190818EA18923808380910201DE
:100B300087788093020180910201809302018EB137
:100B4000877C8EB98EB18EB9A59884B384BB4D8D48
:100B50005E8DFA0190818FA1892380834D8D5E8DFA
:100B6000FA0190818BA1892B808380910201877883
:100B700080930201809102018862809302018EB10C
:100B8000877C8EB98EB18EB9A598A59A4D8D5E8D54
:100B9000FA0190818FA1892380834D8D5E8DFA01AA
:100BA00090818BA1892B8083832F992787FD9A952C
:100BB0006B8D7C8DFB0150814AA1452B4083409178
:100BC000020147784093020160910201AC01407C30
:100BD00055276A0173E0D594C7947A95E1F7AC0183
:100BE00043705527E5E0440F551FEA95E1F74C297E
:100BF000462B409302014EB1477C4EB96EB1AC0119
:100C00004C7055276A01CC0CDD1CCC0CDD1CAC01F2
:100C10004072552755954795559547954C29462B34
:100C20004EB9A59844B380719927880F991F842BDA
:100C300084BB4D8D5E8DFA0190818FA189238083C5
:100C40004D8D5E8DFA0190818BA1892B80838091DF
:100C5000020187788093020140910201C901807CE2
:100C60009927BC01F3E075956795FA95E1F7C901FD
:100C70008370992755E0880F991F5A95E1F7862BC5
:100C8000842B809302018EB1877C8EB94EB1C9014D
:100C90008C709927BC01660F771F660F771FC901FB
:100CA000807299279595879595958795862B842BA6
:100CB0008EB9A59884B320713327220F331F282BB8
:100CC00024BB2D8D3E8DF90190818FA189238083D6
:100CD0002D8D3E8DF90190818BA1892B80832B8DE9
:100CE0003C8DF90190818EA189238083809102013E
:100CF00087788093020180910201809302018EB176
:100D0000877C8EB98EB18EB9A59884B384BB2D8DA6
:100D10003E8DF90190818FA1892380832D8D3E8D99
:100D2000F90190818BA1892B8083809102018778C2
:100D300080930201809102018864809302018EB148
:100D4000877C8EB98EB18EB9A598A59A2D8D3E8DD2
:100D5000F90190818FA1892380832D8D3E8DF9012A
:100D600090818BA1892B80838F2D992787FD9A9560
:100D70004B8D5C8DFA0130812AA1232B2083209199
:100D80000201277820930201409102019C01207CFE
:100D90003327B90133E0759567953A95E1F79C01E2
:100DA0002370332755E0220F331F5A95E1F7262B86
:100DB000242B209302012EB1277C2EB94EB19C0129
:100DC0002C703327B901660F771F660F771F9C01C0
:100DD000207233273595279535952795262B242B7B
:100DE0002EB9A59824B380719927880F991F822B5B
:100DF00084BB2D8D3E8DF90190818FA18923808345
:100E00002D8D3E8DF90190818BA1892B808380915E
:100E1000020187788093020120910201C701807C42
:100E20009927AC0163E0559547956A95E1F7C701AD
:100E30008370992775E0880F991F7A95E1F7842BC5
:100E4000822B809302018EB1877C8EB92EB1C701AF
:100E50008C709927AC01440F551F440F551FC701D3
:100E6000807299279595879595958795842B822BE8
:100E70008EB9A59844B3970120713327220F331FF1
:100E8000242B24BB2D8D3E8DF90190818FA18923C8
:100E900080832D8D3E8DF90190818BA1892B8083DC
:100EA0002B8D3C8DF90190818EA1892380838091C7
:100EB00002018778809302018091020180930201F0
:100EC0008EB1877C8EB98EB18EB9A59884B384BB60
:100ED0002D8D3E8DF90190818FA1892380832D8DE9
:100EE0003E8DF90190818BA1892B80838091020135
:100EF00087788093020180910201886680930201C5
:100F00008EB1877C8EB98EB18EB9A598A59A2D8D9C
:100F10003E8DF90190818FA1892380832D8D3E8D97
:100F2000F90190818BA1892B8083812F992787FDDF
:100F30009A954B8D5C8DFA0130812AA1232B208359
:100F400020910201277820930201409102019C0127
:100F5000207C3327B90123E0759567952A95E1F741
:100F60009C012370332755E0220F331F5A95E1F778
:100F7000262B242B209302012EB1277C2EB94EB1B3
:100F80009C012C703327B901660F771F660F771FFE
:100F90009C01207233273595279535952795262B6B
:100FA000242B2EB9A59824B380719927880F991FF7
:100FB000822B84BB2D8D3E8DF90190818FA18923D9
:100FC00080832D8D3E8DF90190818BA1892B8083AB
:100FD0008091020187788093020120910201C8016B
:100FE000807C9927AC0163E0559547956A95E1F7B8
:100FF000C8018370992775E0880F991F7A95E1F7EA
:10100000842B822B809302018EB1877C8EB92EB106
:10101000C8018C709927AC01440F551F440F551F10
:10102000C801807299279595879595958795842B0A
:10103000822B8EB9A59824B300711127000F111FC0
:10104000022B04BB2D8D3E8DF90190818FA1892348
:1010500080832D8D3E8DF90190818BA1892B80831A
:101060002B8D3C8DF90190818EA189238083809105
:10107000020187788093020180910201809302012E
:101080008EB1877C8EB98EB18EB9A59884B384BB9E
:101090002D8D3E8DF90190818FA1892380832D8D27
:1010A0003E8DF90190818BA1892B80838091020173
:1010B00087788093020180910201809302018EB1B2
:1010C000877C8EB9739AA59884B384BB2D8D3E8D91
:1010D000F90190818FA1892380832D8D3E8DF901A7
:1010E00090818BA1892B80838B2F992787FD9A95DF
:1010F0004B8D5C8DFA0130812AA1232B2083209116
:101100000201277820930201409102019C01207C7A
:101110003327B90123E0759567952A95E1F79C017E
:101120002370332755E0220F331F5A95E1F7262B02
:10113000242B209302012EB1277C2EB94EB19C01A5
:101140002C703327B901660F771F660F771F9C013C
:10115000207233273595279535952795262B242BF7
:101160002EB9A59824B380719927880F991F822BD7
:1011700084BB2D8D3E8DF90190818FA189238083C1
:101180002D8D3E8DF90190818BA1892B80838091DB
:10119000020187788093020120910201CD01807CB9
:1011A0009927AC0103E0559547950A95E1F7CD01E4
:1011B0008370992735E0880F991F3A95E1F7842BC2
:1011C000822B809302018EB1877C8EB92EB1CD0126
:1011D0008C709927AC01440F551F440F551FCD014A
:1011E000807299279595879595958795842B822B65
:1011F0008EB9A59884B3A071BB27AA0FBB1FA82BDB
:10120000A4BBAD8DBE8D9C918FA189238C93AD8D98
:10121000BE8D9C918BA1892B8C93AB8DBC8D9C91A9
:101220008EA189238C93809102018778809302019B
:1012300080910201809302018EB1877C8EB98EB1BC
:101240008EB9A59884B384BBAD8DBE8D9C918FA1C2
:1012500089238C93AD8DBE8D9C918BA1892B8C9312
:10126000809102018778809302018091020180625F
:10127000809302018EB1877C8EB9739AA59884B34E
:1012800084BBAD8DBE8D9C918FA189238C93AD8D38
:10129000BE8D9C918BA1892B8C93892D992787FDDD
:1012A0009A95AB8DBC8D3C912AA1232B2C93209138
:1012B0000201277820930201409102019C01207CC9
:1012C0003327B901A3E075956795AA95E1F79C01CD
:1012D00023703327B5E0220F331FBA95E1F7262B91
:1012E000242B209302012EB1277C2EB94EB19C01F4
:1012F0002C703327B901660F771F660F771F9C018B
:10130000207233273595279535952795262B242B45
:101310002EB9A59824B380719927880F991F822B25
:1013200084BBAD8DBE8D9C918FA189238C93AD8D97
:10133000BE8D9C918BA1892B8C9380910201877823
:101340008093020120910201C401807C9927AC01A5
:1013500063E0559547956A95E1F7C4018370992735
:1013600075E0880F991F7A95E1F7842B822B809383
:1013700002018EB1877C8EB92EB1C4018C70992781
:10138000AC01440F551F440F551FC40180729927AB
:101390009595879595958795842B822B8EB9A598E1
:1013A00084B3F401E071FF27EE0FFF1FE82BE4BBCD
:1013B00080C3413009F08AC3492F552747FD5A950C
:1013C000EB8DFC8D70816EA16723608360910201BB
:1013D000677860930201609102016064609302018A
:1013E0006EB1677C6EB96EB16EB9A59864B364BB1B
:1013F000ED8DFE8D70816FA167236083ED8DFE8D75
:1014000070816BA1672B6083EB8DFC8D70816AA16D
:10141000672B608360910201677860930201E0911D
:101420000201BA01607C7727DB0173E0B595A795CF
:101430007A95E1F7BA0163707727F5E0660F771FB9
:10144000FA95E1F76A2B6E2B609302016EB1677C0F
:101450006EB9EEB1BA016C707727DB01AA0FBB1F22
:10146000AA0FBB1FBA0160727727759567957595AE
:1014700067956A2B6E2B6EB9A59864B3407155279A
:10148000440F551F462B44BBED8DFE8D50814FA15F
:1014900045234083ED8DFE8D50814BA1452B40832C
:1014A000EB8DFC8D50814EA145234083409102017C
:1014B0004778409302014091020140664093020147
:1014C0004EB1477C4EB94EB14EB9A59844B344BB1A
:1014D000ED8DFE8D50814FA145234083ED8DFE8D16
:1014E00050814BA1452B4083EB8DFC8D50814AA14F
:1014F000452B40834091020147784093020160915F
:101500000201AC01407C5527FA01B3E0F595E7955F
:10151000BA95E1F7AC014370552775E0440F551FAC
:101520007A95E1F74E2B462B409302014EB1477C52
:101530004EB96EB1AC014C705527FA01EE0FFF1F8A
:10154000EE0FFF1FAC0140725527559547955595F5
:1015500047954E2B462B4EB9A59864B380719927B9
:10156000880F991F862B84BBED8DFE8D90818FA1F6
:1015700089238083ED8DFE8D90818BA1892B8083C3
:101580008F2D992787FD9A95EB8DFC8D50814EA16B
:1015900045234083409102014778409302014091E6
:1015A00002014064409302014EB1477C4EB9749AE7
:1015B000A59844B344BBED8DFE8D50814FA14523CA
:1015C0004083ED8DFE8D50814BA1452B4083EB8DEB
:1015D000FC8D50814AA1452B408340910201477800
:1015E0004093020160910201AC01407C5527FA0151
:1015F00073E0F595E7957A95E1F7AC0143705527CF
:10160000F5E0440F551FFA95E1F74E2B462B40931A
:1016100002014EB1477C4EB96EB1AC014C705527FA
:10162000FA01EE0FFF1FEE0FFF1FAC0140725527AE
:1016300055954795559547954E2B462B4EB9A598F0
:1016400044B380719927880F991F842B84BBED8D3B
:10165000FE8D90818FA189238083ED8DFE8D9081F9
:101660008BA1892B8083EB8DFC8D90818EA18923AA
:10167000808380910201877880930201809102012A
:101680008066809302018EB1877C8EB9749AA5988A
:1016900084B384BBED8DFE8D90818FA189238083DF
:1016A000ED8DFE8D90818BA1892B8083EB8DFC8D40
:1016B00090818AA1892B8083809102018778809311
:1016C000020140910201C701807C9927BC01E3E03F
:1016D00075956795EA95E1F7C70183709927F5E05D
:1016E000880F991FFA95E1F7862B842B80930201CE
:1016F0008EB1877C8EB94EB1C7018C709927BC0121
:10170000660F771F660F771FC7018072992795951F
:10171000879595958795862B842B8EB9A59844B38C
:10172000F0E1EF22FF24EE0CFF1CE42AE4BAED8D79
:10173000FE8D90818FA189238083ED8DFE8D908118
:101740008BA1892B8083832F992787FD9A95EB8D19
:10175000FC8D50814EA14523408340910201477882
:101760004093020140910201409302014EB1477C37
:101770004EB9749AA59844B344BBED8DFE8D50814B
:101780004FA145234083ED8DFE8D50814BA1452B0C
:101790004083EB8DFC8D50814AA1452B40834091C5
:1017A000020147784093020160910201AC01407C44
:1017B0005527FA0143E0F595E7954A95E1F7AC0125
:1017C0004370552775E0440F551F7A95E1F74E2B6E
:1017D000462B409302014EB1477C4EB96EB1AC012D
:1017E0004C705527FA01EE0FFF1FEE0FFF1FAC01E3
:1017F0004072552755954795559547954E2B462B45
:101800004EB9A59844B380719927880F991F842BEE
:1018100084BBED8DFE8D90818FA189238083ED8D1A
:10182000FE8D90818BA1892B8083EB8DFC8D908127
:101830008EA18923808380910201877880930201A1
:10184000809102018062809302018EB1877C8EB903
:10185000749AA59884B384BBED8DFE8D90818FA181
:1018600089238083ED8DFE8D90818BA1892B8083D0
:10187000EB8DFC8D90818AA1892B80838091020160
:1018800087788093020140910201C901807C9927E9
:10189000BC01E3E075956795EA95E1F7C9018370AE
:1018A0009927F5E0880F991FFA95E1F7862B842B8D
:1018B000809302018EB1877C8EB94EB1C9018C70C4
:1018C0009927BC01660F771F660F771FC9018072C9
:1018D00099279595879595958795862B842B8EB915
:1018E000A59884B320713327220F331F282B24BBE4
:1018F000ED8DFE8D90818FA189238083ED8DFE8DEE
:1019000090818BA1892B8083812F992787FD9A95C0
:10191000EB8DFC8D30812EA12323208320910201A9
:1019200027782093020120910201209302012EB119
:10193000277C2EB9759AA59824B324BBED8DFE8D16
:1019400030812FA123232083ED8DFE8D30812BA1AB
:10195000232B2083EB8DFC8D30812AA1232B208328
:1019600020910201277820930201409102019C01FD
:10197000207C3327B90133E0759567953A95E1F7F7
:101980009C012370332755E0220F331F5A95E1F74E
:10199000262B242B209302012EB1277C2EB94EB189
:1019A0009C012C703327B901660F771F660F771FD4
:1019B0009C01207233273595279535952795262B41
:1019C000242B2EB9A59824B380719927880F991FCD
:1019D000822B84BBED8DFE8D90818FA18923808326
:1019E000ED8DFE8D90818BA1892B8083EB8DFC8DFD
:1019F00090818EA1892380838091020187788093D2
:101A00000201809102018062809302018EB1877C85
:101A10008EB9759AA59884B384BBED8DFE8D9081A7
:101A20008FA189238083ED8DFE8D90818BA1892BE1
:101A30008083EB8DFC8D90818AA1892B808380919E
:101A4000020187788093020120910201C801807C05
:101A50009927AC01B3E055954795BA95E1F7C801D0
:101A60008370992735E0880F991F3A95E1F7842B09
:101A7000822B809302018EB1877C8EB92EB1C80172
:101A80008C709927AC01440F551F440F551FC80196
:101A9000807299279595879595958795842B822BAC
:101AA0008EB9A59824B300711127000F111F022BC6
:101AB00004BBED8DFE8D90818FA189238083ED8DF8
:101AC000FE8D90818BA1892B80832FC042504230A4
:101AD00060F5092E000CAA0BBB0BDC0199278827A7
:101AE000A901330F660B770B9A01AB01282B392B19
:101AF0004A2B5B2B6AE2CE010E94882AC701FF0CA9
:101B0000AA0BBB0BBC0155274427012E000C220B4E
:101B1000330BD901C801842B952BA62BB72B9C0125
:101B2000AD016BE2CE010E94882AE98DFA8D908189
:101B300089A1892B8083DF91CF911F910F91FF9015
:101B4000EF90DF90CF90BF909F908F9008956F920D
:101B50007F928F929F92AF92BF92CF92DF92EF923D
:101B6000FF920F931F93CF93DF93FC013B01A18D55
:101B7000B28D9C9185A189238C93A38DB48D9C916A
:101B800086A189238C93808D823011F181111EC032
:101B900080910201877880930201809102018093F5
:101BA00002018EB1877C8EB98EB18EB9A59884B3AF
:101BB00084BBA58DB68D9C9187A189238C93A58D1F
:101BC000B68D9C9183A1892B8C9312C0833081F4B4
:101BD00080910201877880930201809102018093B5
:101BE00002018EB1877C8EB98EB188638EB90EC02A
:101BF00080910201877880930201809102018064C4
:101C0000809302018EB1877C8EB9739AA59884B3B4
:101C100084BBA58DB68D9C9187A189238C93A58DBE
:101C2000B68D9C9183A1892B8C93A38DB48D9C91AF
:101C300082A1892B8C938091020187788093020185
:101C4000A0910201872F90E07C01B0ECEB22FF24F1
:101C5000B3E0F594E794BA95E1F78C01037011278E
:101C6000C5E0000F111FCA95E1F7BE2DB02BAB2BBD
:101C7000A0930201AEB1A77CAEB91EB16C01CCE05D
:101C8000CC22DD24CC0CDD1CCC0CDD1C7C01D0E294
:101C9000ED22FF24F594E794F594E794AC2DAE295A
:101CA0001A2B1EB9A59814B380719927880F991F14
:101CB000F82E812B84BB058D168DE801988187A1B4
:101CC00089238883058D168DE801988183A1892B4E
:101CD00088838091020187788093020180910201BC
:101CE0008B01007C11276801D3E0D594C794DA9565
:101CF000E1F78B010370112795E0000F111F9A95F2
:101D0000E1F70C29802B809302018EB1877C8EB97C
:101D10008EB15B01DCE0AD22BB24AA0CBB1CAA0C7B
:101D2000BB1C6B0190E2C922DD24D594C794D594E5
:101D3000C7941A2D1C29812B8EB9A59884B3607184
:101D40007727660F771F762F682B64BB858D968D5E
:101D5000EC01E88067A16E216883858D968DEC018A
:101D6000E88063A16E296883215031094109510936
:101D700049015A0136E0B694A794979487943A950E
:101D8000D1F7C401761088C1019708F465C060E1FD
:101D9000A58DB68DCC9177A17C237C93A58DB68D36
:101DA000CC9173A17C2B7C93A58DB68DCC9177A122
:101DB0007C237C93A58DB68DCC9173A17C2B7C93D9
:101DC000A58DB68DCC9177A17C237C93A58DB68D06
:101DD000CC9173A17C2B7C93A58DB68DCC9177A1F2
:101DE0007C237C93A58DB68DCC9173A17C2B7C93A9
:101DF000A58DB68DCC9177A17C237C93A58DB68DD6
:101E0000CC9173A17C2B7C93A58DB68DCC9177A1C1
:101E10007C237C93A58DB68DCC9173A17C2B7C9378
:101E2000A58DB68DCC9177A17C237C93A58DB68DA5
:101E3000CC9173A17C2B7C93A58DB68DCC9177A191
:101E40007C237C93A58DB68DCC9173A17C2B7C9348
:101E5000615009F09DCF98CF2F73215008F465C1D0
:101E6000A58DB68D9C9187A189238C93A58DB68D68
:101E70009C9183A1892B8C93A58DB68D9C9187A174
:101E800089238C93A58DB68D9C9183A1892B8C93EE
:101E9000E4CFC0910201C778C0930201C091020152
:101EA000CB2BC0930201CEB1C77CCEB9CEB1CA2B29
:101EB000CEB9A598C4B3CF29C4BBC58DD68DD88063
:101EC000E7A0ED20E882C58DD68DD880E3A0ED286F
:101ED000E882C0910201C778C0930201C09102015B
:101EE000C02BC0930201CEB1C77CCEB9CEB1C12BFD
:101EF000CEB9A598C4B3C72BC4BBC58DD68DD88029
:101F0000E7A0ED20E882C58DD68DD880E3A0ED282E
:101F1000E882C0910201C778C0930201C09102011A
:101F2000CB2BC0930201CEB1C77CCEB9CEB1CA2BA8
:101F3000CEB9A598C4B3CF29C4BBC58DD68DD880E2
:101F4000E7A0ED20E882C58DD68DD880E3A0ED28EE
:101F5000E882C0910201C778C0930201C0910201DA
:101F6000C02BC0930201CEB1C77CCEB9CEB1C12B7C
:101F7000CEB9A598C4B3C72BC4BBC58DD68DD880A8
:101F8000E7A0ED20E882C58DD68DD880E3A0ED28AE
:101F9000E882C0910201C778C0930201C09102019A
:101FA000CB2BC0930201CEB1C77CCEB9CEB1CA2B28
:101FB000CEB9A598C4B3CF29C4BBC58DD68DD88062
:101FC000E7A0ED20E882C58DD68DD880E3A0ED286E
:101FD000E882C0910201C778C0930201C09102015A
:101FE000C02BC0930201CEB1C77CCEB9CEB1C12BFC
:101FF000CEB9A598C4B3C72BC4BBC58DD68DD88028
:10200000E7A0ED20E882C58DD68DD880E3A0ED282D
:10201000E882C0910201C778C0930201C091020119
:10202000CB2BC0930201CEB1C77CCEB9CEB1CA2BA7
:10203000CEB9A598C4B3CF29C4BBC58DD68DD880E1
:10204000E7A0ED20E882C58DD68DD880E3A0ED28ED
:10205000E882C0910201C778C0930201C0910201D9
:10206000C02BC0930201CEB1C77CCEB9CEB1C12B7B
:10207000CEB9A598C4B3C72BC4BBC58DD68DD880A7
:10208000E7A0ED20E882C58DD68DD880E3A0ED28AD
:10209000E882615009F0FDCE019710F060E1F9CEC1
:1020A0002F73215008F441C08091020187788093FA
:1020B0000201809102018B2B809302018EB1877CFB
:1020C0008EB98EB18A2B8EB9A59884B38F2984BB23
:1020D000C58DD68D988187A189238883C58DD68D9E
:1020E000988183A1892B88838091020187788093CE
:1020F000020180910201802B809302018EB1877CC6
:102100008EB98EB1812B8EB9A59884B3872B84BBF1
:10211000C58DD68D988187A189238883C58DD68D5D
:10212000988183A1892B8883BCCFA18DB28D9C918E
:1021300081A1892B8C93DF91CF911F910F91FF90FB
:10214000EF90DF90CF90BF90AF909F908F907F9057
:102150006F900895EF92FF920F931F93CF93DF93A9
:1021600083708093E6062091D5063091D606409183
:10217000D7065091D806813059F0833049F030931A
:10218000DA062093D9065093DC064093DB0608C09C
:102190005093DA064093D9063093DC062093DB0691
:1021A000E091EA06F091EB0690818091F606892392
:1021B00080838091E9068111D7C0E091E606E15065
:1021C000E33040F4F0E0EE0FFF1FEA57FD4F80814F
:1021D000918102C080E390E1E091EC06F091ED0680
:1021E00030812091F7062323208320910201277854
:1021F0002093020120910201209302012EB1277C3D
:102200002EB92EB12EB9A59824B324BBE091EE06C9
:10221000F091EF0630812091F80623232083E0918E
:10222000EE06F091EF0630812091F406232B2083F7
:10223000209102012778209302012091020120665B
:10224000209302012EB1277C2EB92EB12EB9A5986C
:1022500024B324BBE091EE06F091EF06308120918B
:10226000F80623232083E091EE06F091EF063081FB
:102270002091F406232B2083E091EC06F091ED06EB
:1022800030812091F306232B2083209102012778AF
:102290002093020120910201209302012EB1277C9C
:1022A0002EB92EB12EB9A598A59AE091EE06F0911F
:1022B000EF0630812091F80623232083E091EE067B
:1022C000F091EF0630812091F406232B208320919A
:1022D000020127782093020120910201209302013C
:1022E0002EB1277C2EB94EB19C012C703327B90139
:1022F000660F771F660F771F9C0120723327359575
:10230000279535952795262B242B2EB9A59824B3F0
:1023100080719927880F991F822B84BBE091EE066C
:10232000F091EF0690818091F80689238083E091F7
:10233000EE06F091EF0690818091F406892B808360
:102340000091DB061091DC06015011092091D9069D
:102350003091DA062150310940E050E060E070E051
:1023600081ED96E00E945F048091E906813009F0DA
:1023700075C0E091E606E150E33028F4F0E0ED5757
:10238000FD4F808101C080E0E091EC06F091ED0608
:1023900020819091F7069223908390910201977883
:1023A00090930201909102019064909302019EB17A
:1023B000977C9EB9749AA598A59AE091EE06F09143
:1023C000EF0620819091F80692239083E091EE062B
:1023D000F091EF0620819091F406922B9083E0918A
:1023E000EC06F091ED0620819091F306922B9083FC
:1023F0009091020197789093020120910201982F09
:10240000907C969596959695922B909302019EB10D
:10241000977C9EB92EB1982F9072892F90E0959558
:10242000879595958795822B8EB9A59884B384BBA3
:10243000E091EE06F091EF0690818091F8068923F5
:102440008083E091EE06F091EF0690818091F40692
:10245000892B808381ED96E00E94C53D8091E9063D
:10246000823009F097C08091E606813089F060F0F3
:10247000823031F0833079F4F8E2EF2EF12C0BC08A
:10248000A8E4EA2EF12C07C0E8E8EE2EF12C03C0F8
:1024900078EEE72EF12CE091EC06F091ED069081BC
:1024A0008091F70689238083809102018778809349
:1024B0000201809102018064809302018EB1877CC9
:1024C0008EB98EB188618EB9A598A59AE091EE0675
:1024D000F091EF0690818091F80689238083E09146
:1024E000EE06F091EF0690818091F406892B8083AF
:1024F000E091EC06F091ED0690818091F306892B36
:1025000080838091020187788093020120910201EB
:10251000C701807C992753E0969587955A95E1F7F6
:10252000822B809302018EB1877C8EB98EB190E2AE
:10253000E922FF24F694E794F694E7948062E82A6F
:10254000EEB8A59884B384BBE091EE06F091EF0657
:1025500090818091F80689238083E091EE06F091C6
:10256000EF0690818091F406892B80830091DB0631
:102570001091DC06015011092091D9063091DA063C
:102580002150310940E050E060E070E081ED96E0DC
:102590000E945F048091E906833009F091C0809128
:1025A000E606813071F050F0823029F0833059F422
:1025B000C0E6D0E008C0C0E0D0E005C0C0ECD0E08C
:1025C00002C0C0EAD0E0E091EC06F091ED06908107
:1025D0008091F70689238083809102018778809318
:1025E0000201809102018064809302018EB1877C98
:1025F0008EB98EB188618EB9A598A59AE091EE0644
:10260000F091EF0690818091F80689238083E09114
:10261000EE06F091EF0690818091F406892B80837D
:10262000E091EC06F091ED0690818091F306892B04
:1026300080838091020187788093020120910201BA
:10264000CE01807C992733E0969587953A95E1F7FE
:10265000822B809302018EB1877C8EB98EB1C072BD
:10266000DD27D695C795D695C795C82BCEB9A59821
:1026700084B384BBE091EE06F091EF0690818091E7
:10268000F80689238083E091EE06F091EF069081B1
:102690008091F406892B80830091DB061091DC0683
:1026A000015011092091D9063091DA0621503109E3
:1026B00040E050E060E070E081ED96E00E945F0451
:1026C000DF91CF911F910F91FF90EF900895EF92BE
:1026D000FF920F931F93CF93DF93EC017B018A014D
:1026E0001B821A8288EE93E0A0E0B0E08C839D8389
:1026F000AE83BF8382ED92E0998388838DE190E081
:102700000E9492529A8F898F009779F02DE1F701FC
:10271000DC0101900D922A95E1F74CE050E0B80100
:10272000CE010C960E94BF54188EDF91CF911F915D
:102730000F91FF90EF9008954F925F926F927F926A
:10274000AF92BF92CF92DF92EF92FF920F931F93BF
:10275000CF93DF9300D01F92CDB7DEB78C014983B2
:102760005A836B837C835901C12CD12C7601412C77
:1027700082E0582E612C712C49815A816B817C81B9
:102780009E012F5F3F4FC8010E940D24882351F105
:10279000D301C201F801058404C0880F991FAA1F44
:1027A000BB1F0A94D2F7C80ED91EEA1EFB1E498130
:1027B0005A816B817C818789803129F088EF9FEF76
:1027C000AFEFBFE004C088EF9FEFA0E0B0E0481794
:1027D00059076A077B0780F2F501C082D182E28245
:1027E000F38281E00F900F900F900F90DF91CF91C7
:1027F0001F910F91FF90EF90DF90CF90BF90AF901F
:102800007F906F905F904F900895CF93DF93FC017E
:102810002581222311F080E048C0EC0180916306FD
:102820008031C1F482E08583178A108E118E128E5A
:102830008091640690916506A0E0B0E025E0880FE5
:10284000991FAA1FBB1F2A95D1F7838B948BA58B49
:10285000B68B18C08032F9F683E085834091660616
:10286000509167066091680670916906478B508F9A
:10287000618F728F9F012D5E3F4F8CE496E05CDF8D
:10288000882349F28CE496E09C8F8B8F81E08C83C7
:102890001E821F82188619861A861B861C861D8634
:1028A0001E861F86188A198A1A8ADF91CF91089589
:1028B000CF92DF92EF92FF92CF93DF93B091150703
:1028C000882311F0AB2F01C0A0E08091160790E0A3
:1028D000880F991F8B5D9D4FC0901B07D0901C07E0
:1028E000E0901D07F0901E0720E030E0FC01C5914C
:1028F000D491E881EB23A90160E070E0EA130CC0F9
:102900002F5F3F4F4C155D056E057F0578F33FEF58
:102910002FEF8FEF9FEF03C0322F252FCB01632FB7
:10292000722FDF91CF91FF90EF90DF90CF900895BD
:10293000FC01448155816081718180EB96E00C94AB
:10294000CD1F0F931F93CF93DF93CDB7DEB729979A
:102950000FB6F894DEBF0FBECDBF8C01862FF801F5
:102960001182108213821282158214824AE0BE0103
:102970006F5F7F4F90E00E94A74DBE016F5F7F4F5A
:10298000C8010E94192029960FB6F894DEBF0FBE29
:10299000CDBFDF91CF911F910F91089541E050E09D
:1029A0006FE374E080EB96E00C94CD1FEF92FF9202
:1029B0000F931F93CF93DF93CDB7DEB7A1970FB6D9
:1029C000F894DEBF0FBECDBF7C01CB01BA01F70189
:1029D0001182108213821282158214828E010F5F7F
:1029E0001F4F22E044E00E94884DBC01C7010E94B5
:1029F0001920A1960FB6F894DEBF0FBECDBFDF91B0
:102A0000CF911F910F91FF90EF900895FC01A08945
:102A1000B18982E08C93A485B5851C92A685B78583
:102A20008FEC8C93108EA489B58986E08C93A28953
:102A3000B3898C9180618C93A289B3898C918860D1
:102A40008C93A289B3898C9180688C930288F389D6
:102A5000E02D80818F7D80830895462F50E060E0D7
:102A600070E02AE00C94B5210F931F93CF93DF936E
:102A7000EC01F3DF8C016AE573E0CE010E94A02136
:102A8000800F911FDF91CF911F910F910895CF92E9
:102A9000DF92EF92FF920F931F93CF93DF93CDB707
:102AA000DEB7C054D1400FB6F894DEBF0FBECDBF25
:102AB0000E94893A00911707109118072091190771
:102AC00030911A076B017C01C01AD10AE20AF30A9D
:102AD00040EDC41647E0D406E104F10418F48091F7
:102AE0001F07C6C0609317077093180780931907D4
:102AF00090931A0710921207109211071092100764
:102B000010920F0710920E0762E0809113070E9447
:102B1000153A61E070E080E090E00E94513A61E097
:102B2000809113070E94153A60E0809113070E947C
:102B30009739809114078551823028F48BE291E116
:102B40000197F1F706C064E170E080E090E00E9438
:102B5000513A62E0809113070E94153A8091200754
:102B600090E08230910538F0880F991F880F991FE7
:102B700005970197F1F7F89480E09ADE6F3F7F4F59
:102B80008F4F9F4F21F410921F0778943EC081E031
:102B90008FDE6F3F7F4F8F4F9F4FA9F38E010F5FE7
:102BA0001F4F6E012FEBC21A2EEFD20A780180E080
:102BB0007FDEF701608371838283938381E078DE17
:102BC000F7016483758386839783F8E0EF0EF11C29
:102BD000EC14FD0461F7789420E030E0F801C08047
:102BE000D180E280F3804481558166817781FFEF57
:102BF000CF16DF06EF06FF0631F04F3F8FEF580785
:102C00006807780721F410921F0780E031C0F901AE
:102C100083E0F595E7958A95E1F7E25FF84F8081CB
:102C2000880FC416D506E606F70608F4816080838F
:102C30002F5F3F4F085F1F4F2832310579F62091F3
:102C4000120730E040910E0780910F0790E0840F4B
:102C5000911D40911007840F911D40911107840F21
:102C6000911D99272817390771F681E080931F0776
:102C7000C05CDE4F0FB6F894DEBF0FBECDBFDF9154
:102C8000CF911F910F91FF90EF90DF90CF9008951B
:102C90008091E1048111FCCF81E08093E104809375
:102CA000E0049FEF9093DF041092DE041092DD04A5
:102CB0008093DC048091DC04806D8093DC0480913F
:102CC000DB04813061F41092DB048091DC0480939A
:102CD000BB008091BC0083FDF8CF85EC01C085EE80
:102CE0008093BC008091E1048130E1F38091DE04A7
:102CF000811103C09091DE0401C091E0EBEBF4E0A0
:102D0000A4EEB4E080E0891721F021912D938F5F2C
:102D1000FACF1092E3048093E20408953091BA044C
:102D2000313208F04BC08091E1048111FCCF9091C9
:102D3000B90422E02093E10421E02093E0042FEF86
:102D40002093DF041092DE043093DD04E9E9F4E01F
:102D5000ABEBB4E020E0321721F041914D932F5FAF
:102D6000FACF1092DC042091DC04990F922B9093FF
:102D7000DC049091DB04913061F41092DB049091BB
:102D8000DC049093BB009091BC0093FDF8CF95ECD0
:102D900001C095EE9093BC009091E1049230E1F374
:102DA0009091DF049F3F79F08091DF04803241F001
:102DB0008091DF04803331F084E005C081E003C0FE
:102DC00082E001C083E0109298041092BA0410923D
:102DD00097040895682F89E896E00C940627CF930E
:102DE000DF93FB0122813381DC0113963C932E9308
:102DF0001297448155816681778114964D935D9336
:102E00006D937C93179740855185628573851896DD
:102E10004D935D936D937C931B971C96EF012C96BD
:102E20009C01275E3F4F49914D93A217B307D9F7F5
:102E3000218D328DFC01328F218FDF91CF9108954A
:102E40008F929F92AF92BF92CF92DF92EF92FF92BA
:102E50000F931F93CF93DF936B017C01142F9B0182
:102E6000AC010E945852882319F061E474E027C035
:102E700046015701E894B7F82FEF3FEF4FE75FE7C0
:102E8000C501B4010E94585281110DC02FEF3FEFD0
:102E90004FE75FE7C501B4010E94265018161CF4E5
:102EA00065E474E00CC02FEF3FEF4FE75FE4C7012C
:102EB000B6010E945452181694F469E474E081ED4E
:102EC00096E0DF91CF911F910F91FF90EF90DF90EF
:102ED000CF90BF90AF909F908F900C94A0212FEF38
:102EE0003FEF4FE75FECC701B6010E94265087FD18
:102EF000E4CF20E030E0A901C701B6010E942650CE
:102F000087FF0BC06DE281ED96E00E942432EC0158
:102F1000F7FAF094F7F8F09402C0C0E0D0E000E0D7
:102F200060E070E080E09FE3101741F020E030E0C7
:102F300040E251E40E94C0510F5FF6CFA701960115
:102F40000E945C516B017C010E9428524B015C0184
:102F50002AE0AB01BC0181ED96E00E94B521C80FCB
:102F6000D91F1123C9F1C501B4010E942A509B0148
:102F7000AC01C701B6010E945B516B017C016EE29E
:102F800081ED96E00E942432C80FD91F20E030E086
:102F900040E251E4C701B6010E948B504B015C0135
:102FA0000E9428526B01E12CF12C2AE0B701A60106
:102FB00081ED96E00E94B521C80FD91FC701B60167
:102FC0000E942A509B01AC01C501B4010E945B51D3
:102FD0006B017C011150D1F6CE01DF91CF911F9191
:102FE0000F91FF90EF90DF90CF90BF90AF909F90A8
:102FF0008F900895EF92FF920F931F93CF93DF93DB
:10300000EC01790177FD3EC657FD3CC68885998560
:10301000681779070CF036C68A859B8548175907CB
:103020000CF030C6E98DFA8D90818DA189238083C3
:10303000888D811192C28D89823059F08330B1F030
:103040008130D1F48FEE90E0841B950BAB01BC0175
:1030500013C08FEE90E09C01261B370BB9018FE364
:1030600091E09C01241B350BA90106C08FE391E080
:10307000861B970BBA01AC01EB8DFC8D90818EA164
:103080008923808380910201877880930201809157
:103090000201809302018EB1877C8EB98EB18EB908
:1030A000A59884B384BBED8DFE8D90818FA189237B
:1030B0008083ED8DFE8D90818BA1892B8083809103
:1030C00002018778809302018091020180930201BE
:1030D0008EB1877C8EB9739AA59884B384BBED8D2D
:1030E000FE8D90818FA189238083ED8DFE8D90814F
:1030F0008BA1892B8083872F992787FD9A95EB8D4C
:10310000FC8D30812AA1232B208320910201277876
:1031100020930201E09102019C01207C3327D90118
:10312000F3E0B595A795FA95E1F79C012370332755
:10313000B5E0220F331FBA95E1F72A2B2E2B2093EF
:1031400002012EB1277C2EB9EEB19C012C703327E1
:10315000D901AA0FBB1FAA0FBB1F9C0120723327E6
:1031600035952795359527952A2B2E2B2EB9A59881
:1031700024B380719927880F991F822B84BBED8D12
:10318000FE8D90818FA189238083ED8DFE8D9081AE
:103190008BA1892B80838091020187788093020123
:1031A00020910201CB01807C9927FC01A3E0F595D9
:1031B000E795AA95E1F7CB0183709927B5E0880FD1
:1031C000991FBA95E1F78E2B822B809302018EB165
:1031D000877C8EB92EB1CB018C709927FC01EE0F44
:1031E000FF1FEE0FFF1FCB018072992795958795E2
:1031F000959587958E2B822B8EB9A59884B3607197
:103200007727660F771F682B64BBED8DFE8D90814D
:103210008FA189238083ED8DFE8D90818BA1892BD9
:103220008083EB8DFC8D90818EA18923808380919A
:10323000020187788093020180910201809302014C
:103240008EB1877C8EB98EB18EB9A59884B384BBBC
:10325000ED8DFE8D90818FA189238083ED8DFE8D74
:1032600090818BA1892B8083809102018778809344
:103270000201809102018062809302018EB1877CFD
:103280008EB9739AA59884B384BBED8DFE8D908121
:103290008FA189238083ED8DFE8D90818BA1892B59
:1032A0008083852F992787FD9A95EB8DFC8D308142
:1032B0002AA1232B20832091020127782093020149
:1032C000609102019C01207C3327F90133E0F595E0
:1032D000E7953A95E1F79C012370332775E0220FBB
:1032E000331F7A95E1F72E2B262B209302012EB166
:1032F000277C2EB96EB19C012C703327F901EE0F9B
:10330000FF1FEE0FFF1F9C01207233273595279575
:10331000359527952E2B262B2EB9A59824B3807191
:103320009927880F991F822B84BBED8DFE8D90818C
:103330008FA189238083ED8DFE8D90818BA1892BB8
:10334000808380910201877880930201209102019D
:10335000CA01807C9927BC0103E0759567950A95A1
:10336000E1F7CA018370992735E0880F991F3A95D4
:10337000E1F7862B822B809302018EB1877C8EB978
:103380002EB1CA018C709927BC01660F771F660F9A
:10339000771FCA018072992795958795959587958E
:1033A000862B822B8EB9A59884B340715527440F84
:1033B000551F482B44BBED8DFE8D90818FA1892335
:1033C0008083ED8DFE8D90818BA1892B8083EB8D89
:1033D000FC8D90818EA18923808380910201877862
:1033E0008093020180910201809302018EB1877C5B
:1033F0008EB98EB18EB9A59884B384BBED8DFE8D48
:1034000090818FA189238083ED8DFE8D90818BA18A
:10341000892B8083809102018778809302018091BB
:1034200002018064809302018EB1877C8EB9739A09
:10343000A59884B384BBED8DFE8D90818FA18923E7
:103440008083ED8DFE8D90818BA1892B8083EB8D08
:10345000FC8D90818AA1892B8083809102018778DD
:1034600080930201409102018F2D99279C01207CBD
:103470003327B90113E0759567951A95E1F79C011B
:103480002370332705E0220F331F0A95E1F7262B1F
:10349000242B209302012EB1277C2EB94EB19C0122
:1034A0002C703327B901660F771F660F771F9C01B9
:1034B000207233273595279535952795262B242B74
:1034C0002EB9A59824B380719927880F991F822B54
:1034D00084BBED8DFE8D90818FA189238083ED8D3E
:1034E000FE8D90818BA1892B80838091020187784A
:1034F0008093020120910201C701807C9927AC01D1
:1035000073E0559547957A95E1F7C7018370992740
:10351000E5E0880F991FEA95E1F7842B822B8093D1
:1035200002018EB1877C8EB92EB1C7018C709927AC
:10353000AC01440F551F440F551FC70180729927D6
:103540009595879595958795842B822B8EB9A5980F
:1035500084B330E1E322FF24CFC2813009F0CFC22F
:10356000ED89E150E33028F4F0E0ED57FD4F808124
:1035700001C080E0EB8DFC8D20819EA19223908381
:1035800090910201977890930201909102019064CA
:10359000909302019EB1977C9EB9749AA598A59AC2
:1035A000ED8DFE8D20819FA192239083ED8DFE8D68
:1035B00020819BA1922B9083EB8DFC8D20819AA181
:1035C000922B908390910201977890930201209121
:1035D0000201982F907C969596959695922B9093B4
:1035E00002019EB1977C9EB92EB1982F9072892FBF
:1035F00090E09595879595958795822B8EB9A5989E
:1036000084B384BBED8DFE8D90818FA1892380834F
:10361000ED8DFE8D90818BA1892B8083872F99273B
:1036200087FD9A95EB8DFC8D30812EA1232320837D
:103630002091020127782093020120910201206449
:10364000209302012EB1277C2EB92EB12EB9A59858
:1036500024B324BBED8DFE8D30812FA12323208345
:10366000ED8DFE8D30812BA1232B2083EB8DFC8DE6
:1036700030812AA1232B20832091020127782093D7
:103680000201E09102019C01207C3327D90113E063
:10369000B595A7951A95E1F79C012370332705E0AE
:1036A000220F331F0A95E1F72A2B2E2B20930201BC
:1036B0002EB1277C2EB9EEB19C012C703327D90195
:1036C000AA0FBB1FAA0FBB1F9C0120723327359581
:1036D0002795359527952A2B2E2B2EB9A59824B3FF
:1036E00080719927880F991F822B84BBED8DFE8DE9
:1036F00090818FA189238083ED8DFE8D90818BA198
:10370000892B8083EB8DFC8D90818EA18923808312
:103710008091020187788093020180910201806686
:10372000809302018EB1877C8EB98EB18EB9A59837
:1037300084B384BBED8DFE8D90818FA1892380831E
:10374000ED8DFE8D90818BA1892B8083EB8DFC8D7F
:1037500090818AA1892B8083809102018778809350
:10376000020120910201CB01807C9927FC01B3E08A
:10377000F595E795BA95E1F7CB018370992715E0A8
:10378000880F991F1A95E1F78E2B822B80930201E7
:103790008EB1877C8EB92EB1CB018C709927FC013C
:1037A000EE0FFF1FEE0FFF1FCB018072992795953B
:1037B0008795959587958E2B822B8EB9A59884B386
:1037C00060717727660F771F682B64BBED8DFE8DC8
:1037D00090818FA189238083ED8DFE8D90818BA1B7
:1037E000892B8083852F992787FD9A95EB8DFC8DFA
:1037F00030812EA12323208320910201277820935A
:103800000201209102012064209302012EB1277C45
:103810002EB9749AA59824B324BBED8DFE8D30810A
:103820002FA123232083ED8DFE8D30812BA1232B0F
:103830002083EB8DFC8D30812AA1232B20832091C6
:103840000201277820930201609102019C01207CF3
:103850003327F901A3E0F595E795AA95E1F79C01D7
:1038600023703327B5E0220F331FBA95E1F72E2BD3
:10387000262B209302012EB1277C2EB96EB19C011C
:103880002C703327F901EE0FFF1FEE0FFF1F9C0175
:103890002072332735952795359527952E2B262B86
:1038A0002EB9A59824B380719927880F991F822B70
:1038B00084BBED8DFE8D90818FA189238083ED8D5A
:1038C000FE8D90818BA1892B8083EB8DFC8D908167
:1038D0008EA18923808380910201877880930201E1
:1038E000809102018066809302018EB1877C8EB93F
:1038F000749AA59884B384BBED8DFE8D90818FA1C1
:1039000089238083ED8DFE8D90818BA1892B80830F
:10391000EB8DFC8D90818AA1892B8083809102019F
:1039200087788093020120910201CA01807C992747
:10393000BC01E3E075956795EA95E1F7CA018370EC
:103940009927F5E0880F991FFA95E1F7862B822BCE
:10395000809302018EB1877C8EB92EB1CA018C7022
:103960009927BC01660F771F660F771FCA01807207
:1039700099279595879595958795862B822B8EB956
:10398000A59884B340715527440F551F482B44BB5D
:10399000ED8DFE8D90818FA189238083ED8DFE8D2D
:1039A00090818BA1892B8083EB8DFC8D90818EA1E2
:1039B000892380838091020187788093020180911E
:1039C00002018064809302018EB1877C8EB9739A64
:1039D000A59884B384BBED8DFE8D90818FA1892342
:1039E0008083ED8DFE8D90818BA1892B8083EB8D63
:1039F000FC8D90818AA1892B808380910201877838
:103A000080930201409102018F2D99279C01207C17
:103A10003327B90123E0759567952A95E1F79C0155
:103A20002370332755E0220F331F5A95E1F7262BD9
:103A3000242B209302012EB1277C2EB94EB19C017C
:103A40002C703327B901660F771F660F771F9C0113
:103A5000207233273595279535952795262B242BCE
:103A60002EB9A59824B380719927880F991F822BAE
:103A700084BBED8DFE8D90818FA189238083ED8D98
:103A8000FE8D90818BA1892B8083809102018778A4
:103A90008093020120910201C701807C9927AC012B
:103AA000B3E055954795BA95E1F7C701837099271B
:103AB00015E0880F991F1A95E1F7842B822B8093CC
:103AC00002018EB1877C8EB92EB1C7018C70992707
:103AD000AC01440F551F440F551FC7018072992731
:103AE0009595879595958795842B822B8EB9A5986A
:103AF00084B390E1E922FF24EE0CFF1CAFC082509A
:103B0000823008F0B9C00A851B850150110928854B
:103B1000398521503109CE010E945F04E98DFA8D6B
:103B200090818DA189238083EB8DFC8D90818EA166
:103B3000892380838091020187788093020180919C
:103B40000201809302018EB1877C8EB98EB18863A9
:103B50008EB9A59884B384BBED8DFE8D90818FA125
:103B600089238083ED8DFE8D90818BA1892B8083AD
:103B7000EB8DFC8D90818AA1892B8083809102013D
:103B8000877880930201409102018F2D99279C0133
:103B9000207C332753E0369527955A95E1F7382F47
:103BA00033703295330F307E232B242B2093020168
:103BB0002EB1277C2EB94EB1282F2C70522F550FC5
:103BC000550F9C01207233273695279536952795FA
:103BD000252B242B2EB9A59894B38071880F892B9F
:103BE00084BBED8DFE8D90818FA189238083ED8D27
:103BF000FE8D90818BA1892B808380910201877833
:103C00008093020120910201C701807C992773E013
:103C1000969587957A95E1F79E2D93709295990FD9
:103C2000907E892B822B809302018EB1877C8EB986
:103C30002EB18E2D8C70382F330F330FC701807249
:103C400099279695879596958795832B822B8EB984
:103C5000A59884B39E2D9071E92EEE0CE82AE4BA63
:103C6000ED8DFE8D90818FA189238083ED8DFE8D5A
:103C700090818BA1892B8083E98DFA8D908189A118
:103C8000892B8083DF91CF911F910F91FF90EF904F
:103C900008950895CF92DF92EF92FF920F931F93B2
:103CA000CF93DF936C017A018B01C0E0D0E0CE1599
:103CB000DF0581F0D8016D918D01D601ED91FC9168
:103CC0000190F081E02DC6011995892B11F0219604
:103CD000EECF7E01C701DF91CF911F910F91FF9031
:103CE000EF90DF90CF900895FC01538D448D252FE8
:103CF00030E0842F90E0821B930B541710F0CF9686
:103D0000089501970895FC01918D828D981761F0B7
:103D1000828DDF01A80FB11D5D968C91928D9F5F02
:103D20009F73928F90E008958FEF9FEF0895FC01AD
:103D3000918D828D981731F0828DE80FF11D858D60
:103D400090E008958FEF9FEF0895FC01918D228DF3
:103D5000892F90E0805C9F4F821B91098F73992778
:103D6000089584E095E0F1DF21E0892B09F420E05B
:103D7000822F089581EA95E0E8DF21E0892B09F49C
:103D800020E0822F0895FC01848DDF01A80FB11D72
:103D9000A35ABF4F2C91848D90E001968F73992781
:103DA000848FA689B7892C93A089B1898C9183705F
:103DB00080648C93938D848D981306C00288F38958
:103DC000E02D80818F7D80830895EF92FF920F9385
:103DD0001F93CF93DF93EC0181E0888F9B8D8C8DB7
:103DE000981305C0E889F989808185FD25C0F62EE4
:103DF0000B8D10E00F5F1F4F0F731127E02E8C8D7E
:103E0000E8120BC00FB607FCFACFE889F989808168
:103E100085FFF5CFCE01B7DFF2CF8B8DFE01E80F26
:103E2000F11DE35AFF4FF0829FB7F8940B8FEA8998
:103E3000FB89808180620AC09FB7F894EE89FF8970
:103E40006083E889F98980818370806480839FBF63
:103E500081E090E0DF91CF911F910F91FF90EF9063
:103E60000895CF93DF93EC01888D8823C1F0EA8910
:103E7000FB89808185FD05C0A889B9898C9186FD63
:103E80000EC00FB607FCF5CF808185FFF2CFA88961
:103E9000B9898C9185FFEDCFCE0175DFE8CFDF9139
:103EA000CF91089580E090E0892B19F063DF8111B4
:103EB0001CC080E090E0892B41F080E090E0892BED
:103EC00021F00E940000811113C04BDF811113C04B
:103ED00080E090E0892BA1F080E090E0892B81F0D8
:103EE0000E94000081110AC008950E940000E1CFE5
:103EF0000E940000EACF0E94EC34EACF0C9400004C
:103F000008950E949354CF93DF93EC0188819981A7
:103F1000009711F00E942A53198218821D821C8278
:103F20001B821A82DF91CF910895CF93DF931F9266
:103F3000CDB7DEB7698341E050E0BE016F5F7F4FD0
:103F40000E9498300F90DF91CF9108950F931F93A7
:103F5000CF93DF93EC0188819981009729F02A8122
:103F60003B812617370788F48B016F5F7F4F0E94D4
:103F7000B353009761F0998388831B830A832C8154
:103F80003D81232B11F4FC01108281E001C080E00F
:103F9000DF91CF911F910F910895EF92FF920F93B0
:103FA0001F93CF93DF936115710511F480E01BC05F
:103FB00041155105B9F07B01EC018C819D818A018D
:103FC000080F191FB801CE01C1DF882379F32881BA
:103FD00039818C819D81B701820F931F0E94B85453
:103FE0001D830C8381E0DF91CF911F910F91FF9092
:103FF000EF900895EF92FF920F931F93CF93DF936B
:10400000EC017B018A01BA01A1DF811103C0CE015D
:104010007ADF07C01D830C83B701888199810E94D4
:10402000B854CE01DF91CF911F910F91FF90EF9087
:104030000895CF93DF93EC016115710551F0FB01F9
:1040400001900020E9F73197AF01461B570BD2DFF3
:1040500001C059DFCE01DF91CF910895CF93DF9357
:10406000EC01FB018617970751F0608171816115A2
:10407000710521F044815581BDDF01C044DFCE01CF
:10408000DF91CF910895FC01808191810C942A5396
:104090001F920F920FB60F9211240BB60F922F930F
:1040A0003F934F935F936F937F938F939F93AF93C0
:1040B000BF93EF93FF93E0910E02F0910F021995D9
:1040C000FF91EF91BF91AF919F918F917F916F91F0
:1040D0005F914F913F912F910F900BBE0F900FBEAC
:1040E0000F901F9018951F920F920FB60F921124E8
:1040F0000BB60F922F933F934F935F936F937F93E2
:104100008F939F93AF93BF93EF93FF93E0910C0234
:10411000F0910D021995FF91EF91BF91AF919F9191
:104120008F917F916F915F914F913F912F910F9060
:104130000BBE0F900FBE0F901F9018951F920F92FD
:104140000FB60F9211240BB60F922F933F934F93FC
:104150005F936F937F938F939F93AF93BF93EF93EF
:10416000FF93E0910202F09103021995FF91EF9104
:10417000BF91AF919F918F917F916F915F914F917F
:104180003F912F910F900BBE0F900FBE0F901F907D
:1041900018951F920F920FB60F9211240BB60F9223
:1041A0002F933F934F935F936F937F938F939F933F
:1041B000AF93BF93EF93FF93E0910002F091010260
:1041C0001995FF91EF91BF91AF919F918F917F9141
:1041D0006F915F914F913F912F910F900BBE0F9078
:1041E0000FBE0F901F9018951F920F920FB60F924F
:1041F00011240BB60F922F933F934F935F936F93BE
:104200007F938F939F93AF93BF93EF93FF93E0912F
:104210000A02F0910B021995FF91EF91BF91AF91B6
:104220009F918F917F916F915F914F913F912F91CE
:104230000F900BBE0F900FBE0F901F9018951F92FE
:104240000F920FB60F9211240BB60F922F933F933C
:104250004F935F936F937F938F939F93AF93BF938E
:10426000EF93FF93E0910802F09109021995FF91F5
:10427000EF91BF91AF919F918F917F916F915F91DE
:104280004F913F912F910F900BBE0F900FBE0F904B
:104290001F9018951F920F920FB60F9211240BB614
:1042A0000F922F933F934F935F936F937F938F93CF
:1042B0009F93AF93BF93EF93FF93E0910602F0912A
:1042C00007021995FF91EF91BF91AF919F918F9147
:1042D0007F916F915F914F913F912F910F900BBE06
:1042E0000F900FBE0F901F9018951F920F920FB650
:1042F0000F9211240BB60F922F933F934F935F931E
:104300006F937F938F939F93AF93BF93EF93FF939D
:10431000E0910402F09105021995FF91EF91BF9190
:10432000AF919F918F917F916F915F914F913F914D
:104330002F910F900BBE0F900FBE0F901F901895EE
:104340006115710579F0FB0101900020E9F73197C3
:10435000AF01461B570BDC01ED91FC910280F3810C
:10436000E02D199480E090E008958F929F92AF9293
:10437000BF92EF92FF920F931F93CF93DF93CDB72E
:10438000DEB7A1970FB6F894DEBF0FBECDBF7C019C
:10439000FA01CB0119A2223008F42AE08E010F5D48
:1043A0001F4F822E912CA12CB12CBF01A50194018D
:1043B0000E945C52F901CA01015011096A3014F4DB
:1043C000605D01C0695CD8016C93232B242B252BE5
:1043D00061F7B801C701B4DFA1960FB6F894DEBF4C
:1043E0000FBECDBFDF91CF911F910F91FF90EF9046
:1043F000BF90AF909F908F9008950F931F93CF938E
:10440000DF93EC019DDF8C016AE573E0CE0198DF5C
:10441000800F911FDF91CF911F910F9108950F93FE
:104420001F93CF93DF93EC01FB01448155816081A1
:104430007181E881F9810280F381E02D19958C0169
:104440006AE573E0CE017CDF800F911FDF91CF9191
:104450001F910F91089574CF1F920F920FB60F9274
:1044600011240BB60F922F933F934F935F936F934B
:104470007F938F939F93AF93BF93EF93FF9384E0CA
:1044800095E081DCFF91EF91BF91AF919F918F916A
:104490007F916F915F914F913F912F910F900BBE44
:1044A0000F900FBE0F901F9018951F920F920FB68E
:1044B0000F9211240BB60F922F938F939F93EF932C
:1044C000FF93E0911405F09115058081E0911A05A4
:1044D000F0911B0582FD12C0908180911D058F5FB8
:1044E0008F7320911E05821751F0E0911D05F0E0B9
:1044F000EC5FFA4F958F80931D0501C08081FF917D
:10450000EF919F918F912F910F900BBE0F900FBE47
:104510000F901F9018951F920F920FB60F921124B3
:104520000BB60F922F933F934F935F936F937F93AD
:104530008F939F93AF93BF93EF93FF9381EA95E09F
:1045400022DCFF91EF91BF91AF919F918F917F916D
:104550006F915F914F913F912F910F900BBE0F90F4
:104560000FBE0F901F9018951F920F920FB60F92CB
:1045700011240BB60F922F938F939F93EF93FF937A
:10458000E091B105F091B2058081E091B705F0911D
:10459000B80582FD12C090818091BA058F5F8F733C
:1045A0002091BB05821751F0E091BA05F0E0EF557C
:1045B000FA4F958F8093BA0501C08081FF91EF91EA
:1045C0009F918F912F910F900BBE0F900FBE0F9068
:1045D0001F901895809121078823A9F140917902B5
:1045E00050917A0260917B0270917C0229E737E05A
:1045F0008091790990917A090E943230811102C02C
:1046000080E008954091220750912307609124078C
:1046100070912507411551056105710591F029E754
:1046200037E08091790990917A090E94323088238D
:1046300039F3109222071092230710922407109248
:1046400025071092210781E008958F929F92AF92E3
:10465000BF92EF92FF920F931F93CF934B015C0198
:10466000C42F8091790290917A02A0917B02B0913F
:104670007C0288159905AA05BB05F9F0ABDF81110D
:1046800002C080E020C089E7E82E87E0F82E00E035
:1046900012E020E030E0B501A40180917909909109
:1046A0007A090E94A22F882361F380927902909266
:1046B0007A02A0927B02B0927C0280912107C82BE3
:1046C000C093210781E0CF911F910F91FF90EF9050
:1046D000BF90AF909F908F9008954F925F926F928E
:1046E0007F928F929F92AF92BF92CF92DF92EF9282
:1046F000FF920F931F93CF93DF93EC01423051054C
:104700006105710510F480E077C089859A85AB85D5
:10471000BC850196A11DB11D84179507A607B70793
:1047200090F3CB88DC88ED88FE888F89803129F46E
:10473000BB27A72F962F852F09C0DB01CA01E7E011
:10474000B695A79597958795EA95D1F748015901B0
:104750002A013B01C80ED91EEA1EFB1E8091790278
:1047600090917A02A0917B02B0917C02C816D90682
:10477000EA06FB0681F48F898031A1F4B301A2011E
:10478000552766277727440F551FFA01E758F84F3A
:104790009182808218C040E0C701B60156DF8111C6
:1047A000EACFB1CFB301A2014F775527662777270C
:1047B000440F551F440F551FFA01E758F84F8082E8
:1047C0009182A282B3828091210781608093210728
:1047D0008A89823080F08D819E81AF81B885C80E34
:1047E000D91EEA1EFB1EC0922207D0922307E09238
:1047F0002407F092250781E0DF91CF911F910F915F
:10480000FF90EF90DF90CF90BF90AF909F908F90F0
:104810007F906F905F904F9008958F929F92AF928C
:10482000BF92CF92DF92EF92FF920F931F93CF939D
:10483000DF93FC0181859285A385B4850196A11D36
:10484000B11D84179507A607B70710F480E05AC07A
:1048500083889488A588B6888789803129F4BB2706
:10486000A72F962F852F09C0DB01CA01C7E0B69597
:10487000A79597958795CA95D1F7E9016A017B01BC
:104880008F01BC01CD01680D791D8A1D9B1D809093
:10489000790290907A02A0907B02B0907C02681519
:1048A00079058A059B0591F4F8018789803199F48F
:1048B000DD24EE24FF24C601880F991FFC01E75870
:1048C000F84F80819181A0E0B0E017C040E0BDDEEC
:1048D0008111EACFBBCFE894C7F8DD24EE24FF2492
:1048E000C601880F991F880F991FFC01E758F84FE0
:1048F00080819181A281B381BF7088839983AA83CB
:10490000BB8381E0DF91CF911F910F91FF90EF90DA
:10491000DF90CF90BF90AF909F908F9008952F928F
:104920003F924F925F926F927F928F929F92AF923F
:10493000BF92CF92DF92EF92FF920F931F93CF938C
:10494000DF93CDB7DEB72B970FB6F894DEBF0FBE5F
:10495000CDBF7C01FE013196CE010C966F0130E295
:104960003193E817F907E1F7DA0130E087E09D912C
:10497000992331F19E3231F48A3009F466C138E06E
:104980008AE0F5CFE5EEF2E04491442321F0319640
:104990009413FACF5AC1831708F457C14FED490F4A
:1049A0004E3508F052C141E0430FF601E30FF11D0F
:1049B0003FE9390F3A3108F490529083342FD7CF22
:1049C0008981803209F441C1322E8B01DB015B9673
:1049D0008D919C915C97F701948F838F16961D9211
:1049E0001D921D921C921997FB0112861386148644
:1049F0001586B12CF80182859385A485B5854389F8
:104A000054896589768984179507A607B70708F042
:104A10005AC025E0B695A795979587952A95D1F721
:104A2000F82FFF70AF2ED80115968C91823008F4C4
:104A30000CC1C80199D297FD08C1F8018285938500
:104A4000A485B5854F96A11DB11D82879387A48744
:104A5000B587F0E2AF9EB00111246758784F611519
:104A6000710509F4F2C0DB018C91882319F0853EB1
:104A7000C1F4EDC0B1100EC0F701A28A8091790295
:104A800090917A02A0917B02B0917C0286879787F1
:104A9000A08BB18BDB018C91882399F0BB24B3945C
:104AA000A9CF4BE050E0C6010E949754892B09F032
:104AB000A1CF832D8073803309F4C7C0432D6A2DA5
:104AC000C1C0BB24B394832D8271823109F0BDC073
:104AD000BB20B9F0F701668577858089918941E02F
:104AE000B4DD882309F4B1C0D70152968C91B0E2AD
:104AF0008B9FC00111248758984F009709F077C009
:104B0000A4C0F8018581823009F49FC0C8010E94C9
:104B1000152E882309F499C0D8015B96ED91FC917C
:104B20005C9716968D909D90AD90BC901997B2E0D1
:104B30008B1A9108A108B108058404C0880C991C3F
:104B4000AA1CBB1C0A94D2F786859785A089B189D7
:104B5000880E991EAA1EBB1E2480E1E08E1A9108C1
:104B6000A108B108222001F124013501420C511C99
:104B7000611C711C2FDD882309F467C0E9E7F7E0A9
:104B8000119229E0E937F207D9F740927902509261
:104B90007A0260927B0270927C0280912107816090
:104BA000809321072A94DECFD8015B96ED91FC918A
:104BB0005C9780E092E0A0E0B0E0058404C0880F3C
:104BC000991FAA1FBB1F0A94D2F7F8014389548981
:104BD00065897689840F951FA61FB71F838B948BD9
:104BE000A58BB68BD70152961C9289E797E020E2FD
:104BF000FC0111922A95E9F72BE0F601DC01019006
:104C00000D922A95E1F721E238E2DC0151963C93BE
:104C10002E93509740E058E01F965C934E931E975A
:104C200053963C932E93529759963C932E935897B4
:104C300057965C934E935697CDDC882331F0432DE5
:104C4000F7016289C701ECD605C080E003C0B1104E
:104C500025CF12CF2B960FB6F894DEBF0FBECDBF77
:104C6000DF91CF911F910F91FF90EF90DF90CF9048
:104C7000BF90AF909F908F907F906F905F904F907C
:104C80003F902F900895DC015996ED91FC915A9731
:104C90003097B9F083899489A589B689428553856F
:104CA00064857585841B950BA60BB70B811520E8D1
:104CB0009207A105B10538F08FEF9FE7A0E0B0E0C3
:104CC000089580E090E00895CF93DF931F92CDB7D1
:104CD000DEB76983DC01ED91FC910280F381E02D68
:104CE00041E050E0BE016F5F7F4F19950F90DF915B
:104CF000CF91089585ED8093BC008091BC0084FD28
:104D0000FCCF1092E104089540914607262F30E031
:104D1000240F311D21323105DCF42091E1042430CF
:104D2000C9F4FC0180E090E0861758F43091460702
:104D30002191DC01AA5DB84FA30FB11D2C93019600
:104D4000F3CF80914607680F6093460780E008958F
:104D500081E0089582E00895089508950895E0910E
:104D6000E3048091E204E81730F4F0E0EC51FB4FEB
:104D7000808190E008958FEF9FEF08959091E30474
:104D80008091E204981750F4E92FF0E0EC51FB4FCA
:104D9000208130E09F5F9093E30402C02FEF3FEF4C
:104DA000C90108958091E20490E02091E304821B00
:104DB00091090895CF92DF92EF92FF920F931F9384
:104DC000CF93DF937C01CB018A01209197042223AA
:104DD00089F0EB016B01C40ED51ECC15DD0561F029
:104DE0006991D701ED91FC910190F081E02DC7010F
:104DF0001995F3CF642F88DFC801DF91CF911F9100
:104E00000F91FF90EF90DF90CF900895CF93DF93B5
:104E10001F92CDB7DEB76983209197042223D1F08A
:104E20002091BA04203240F021E030E0FC013383CD
:104E3000228380E090E014C080919804E82FF0E095
:104E4000E756FB4F998190838F5F809398048093FE
:104E5000BA0404C061E0CE01019656DF81E090E023
:104E60000F90DF91CF910895FC01818D928D009775
:104E700009F006C50895CF93DF93EC01898D9A8DD3
:104E8000009739F481E090E09B838A8380E090E092
:104E90000BC0FC01138212820E949830E98DFA8DBA
:104EA00022813381232B71F7DF91CF9108958EBD3D
:104EB00000000DB407FEFDCF8EB508958FEFF7CF3C
:104EC0008CBD9DBD0895FC01DB0112968D919C91D6
:104ED00013979383828382EA92E09183808314966E
:104EE0008C911497848315968C91159785831696CB
:104EF0004D915D916D917C911997468357836087A1
:104F000071871A964D915D916D917C911D974287A5
:104F10005387648775871E964D915D916D917C9145
:104F2000519746875787608B718B52968C91529719
:104F3000828B53964D915D916D917C915697438BE9
:104F4000548B658B768B57964D915D916D917C91CD
:104F50005A97478B508F618F728F5B968D919C9182
:104F60005C97948F838F08954F925F926F927F9298
:104F7000AF92BF92CF92DF92EF92FF920F931F9367
:104F8000CF93DF931F92CDB7DEB7FC01258122239B
:104F900009F4BEC0848180FFBBC083899489A58940
:104FA000B689428453846484758484159505A60566
:104FB000B70509F4ADC06F015201F1E0BF22D6017F
:104FC0005B968D919C915C97B301A20139E0769537
:104FD0006795579547953A95D1F7223071F4FC01C2
:104FE000828D938DA48DB58D8A019B01080F191FA9
:104FF0002A1F3B1FC901B80149C0DC0114961C914E
:1050000011501423A114B104F1F411111CC045284E
:105010004628472851F4F6018789908DA18DB28DDD
:1050200086839783A087B1870EC0D60116964D91CF
:105030005D916D917C91199796012A5F3F4FEDDB51
:10504000882309F465C0F601238D348D868197810C
:10505000A085B1850297A109B109AC01BD01F90193
:10506000058404C0440F551F661F771F0A94D2F7AA
:1050700086859785A089B189840F951FA61FB71FC4
:10508000BC01CD01610F711D811D911DD6011496CA
:105090002C9126FF0DC04090790250907A026090CA
:1050A0007B0270907C02461657066806790691F4DA
:1050B00040E0CBDA882361F1F501E758F84FDE01D3
:1050C00011969F012F5F3F4F2E173F0791F081915F
:1050D0008D93FACFFE0131967F0101E010E095013A
:1050E000AB01BC018091790990917A092BD7882373
:1050F00079F0F60182859385A485B5850196A11D79
:10510000B11D82879387A487B587898190E002C00B
:105110008FEF9FEF0F90DF91CF911F910F91FF9035
:10512000EF90DF90CF90BF90AF907F906F905F90A7
:105130004F900895FC01818D928D009709F014CF56
:105140008FEF9FEF08950F931F93CF93DF93FC0191
:10515000818D928D0097A9F0EF0106DF8C010F3F42
:105160008FEF180789F0898D9A8DFC014285538550
:10517000648575854150510961097109BAD3C80127
:1051800005C080E090E002C08FEF9FEFDF91CF91EC
:105190001F910F9108951F920F920FB60F92112435
:1051A0000BB60F922F933F934F935F936F937F9321
:1051B0008F939F93AF93BF93EF93FF9380917A0464
:1051C00090917B048093B20080916A0790916B0765
:1051D000A0916C07B0916D070196A11DB11D809340
:1051E0006A0790936B07A0936C07B0936D0780914B
:1051F0006A0790916B07A0916C07B0916D07409181
:105200007E0450917F046091800470918104841722
:105210009507A607B70710F18091690781111EC095
:1052200081E08093690780916A0790916B07A09154
:105230006C07B0916D07841B950BA60BB70B809381
:105240006A0790936B07A0936C07B0936D07E0918A
:105250007C04F0917D04199510926907FF91EF91FC
:10526000BF91AF919F918F917F916F915F914F917E
:105270003F912F910F900BBE0F900FBE0F901F907C
:10528000189510926A0710926B0710926C07109293
:105290006D071092690780917A0490917B04809346
:1052A000B200E0E7F0E080818160808308951F9282
:1052B0000F920FB60F9211240BB60F922F933F93BC
:1052C0004F935F936F937F938F939F93AF93BF930E
:1052D000EF93FF938091B900887F803609F49CC0DA
:1052E00068F5883209F45BC090F4803109F454C049
:1052F00038F4882309F4F6C0883009F44DC0F5C0AD
:10530000883109F44CC0803209F45DC0EEC08034AD
:1053100009F468C048F4803309F455C0883309F0B3
:10532000E4C08093DF04D8C0803509F44FC08835CD
:1053300009F45DC0883409F0D8C0D6C0883909F4B2
:10534000C7C0A8F4883709F467C038F4883609F470
:1053500063C0803709F460C0C8C0883809F4B8C099
:10536000803909F45FC0803809F0BFC05BC0803B62
:1053700009F486C038F4803A09F466C0883A09F422
:105380007FC0B3C0803C09F4A7C0883C09F4A4C026
:10539000883B09F48AC0A9C08091DC0410C09091B8
:1053A000DE048091DD04981770F5E091DE0481E061
:1053B0008E0F8093DE04F0E0E554FB4F80818093F4
:1053C000BB0085EC86C08093DF048EC0E091DE04D4
:1053D00081E08E0F8093DE048091BB00F0E0E55405
:1053E000FB4F80839091DE048091DD046EC0E091DC
:1053F000DE0481E08E0F8093DE048091BB00F0E03C
:10540000E554FB4F80838091E00481116DC081E001
:105410008093DB0484EA61C083E08093E10410920E
:105420006807CFCF80916807803208F051C0E091C3
:10543000680781E08E0F809368078091BB00F0E0E1
:10544000E85BF84F8083BDCF85EC8093BC00109261
:10545000E10480916807803230F4E0916807F0E061
:10546000E85BF84F10826091680770E0E091760485
:10547000F091770488E497E019951092680735C099
:1054800084E08093E1041092470710924607E09170
:105490007804F0917904199580914607811105C02F
:1054A00081E08093460710922607E091470781E04C
:1054B0008E0F80934707F0E0EA5DF84F808180937C
:1054C000BB009091470780914607981708F479CF61
:1054D00085E88093BC0009C085EC8093BC001092E5
:1054E000E10403C01092DF0405DCFF91EF91BF914E
:1054F000AF919F918F917F916F915F914F913F916C
:105500002F910F900BBE0F900FBE0F901F9018950C
:10551000AF92BF92CF92DF92EF92FF920F931F93C1
:10552000CF93DF93FC01A18DB28D9C9185A189233E
:105530008C93A38DB48D9C9186A189238C93A2E03A
:10554000B1E08C9187788C937C91862F807CC82FDA
:10555000C695C695C695962F937000E2909FC001A0
:1055600011248C2B872B8C938EB1877C8EB97EB1C6
:10557000862F8C7014E0819FE0011124962F907289
:10558000892F90E095958795959587958C2B872BFE
:105590008EB9A59884B36071660F682B64BBC58D06
:1055A000D68D988187A189238883C58DD68D9881D2
:1055B00083A1892B8883C38DD48D988182A1892B67
:1055C000888313E2A12EB12CC5010197F1F78C91CC
:1055D00087788C931C91652F7727882799276B01F3
:1055E0007C01C0ECCC22DD24EE24FF24C3E0F69441
:1055F000E794D794C794CA95D1F7062F0370029504
:10560000000F007EC02AC12ACC921EB1177C1EB9A1
:10561000CEB1062F0C70000F000F6B017C01D0E2A1
:10562000CD22DD24EE24FF24D2E0F694E794D79433
:10563000C794DA95D1F7C02ACC2ACEB8A59814B36E
:105640006071660F612B64BB658D768DEB0198816F
:1056500087A189238883658D768DEB01988183A14D
:10566000892B8883C5010197F1F78C9187788C93FA
:105670001C91BA01882799276B017C01D0ECCD22BF
:10568000DD24EE24FF24C3E0F694E794D794C79476
:10569000CA95D1F7062F03700295000F007EC02A2D
:1056A000C12ACC921EB1177C1EB91EB1062F0C70F8
:1056B000000F000F6B017C01C0E2CC22DD24EE2440
:1056C000FF24D2E0F694E794D794C794DA95D1F703
:1056D000C02AC12ACEB8A59814B36071660F612B99
:1056E00064BB658D768DEB01988187A189238883C2
:1056F000658D768DEB01988183A1892B8883C50107
:105700000197F1F78C9187788C931C919927852FBD
:10571000742F632F6B017C01D0ECCD22DD24EE24AD
:10572000FF24C3E0F694E794D794C794CA95D1F7C1
:10573000062F03700295000F007EC02AC12ACC926A
:105740001EB1177C1EB91EB1062F0C70000F000F82
:105750006B017C01C0E2CC22DD24EE24FF24D2E0E8
:10576000F694E794D794C794DA95D1F7C02AC12A62
:10577000CEB8A598F4B26071660F6F2964BB658DD1
:10578000768DEB01988187A189238883658D768D3D
:10579000EB01988183A1892B8883E5012197F1F79B
:1057A0008C9187788C938C9169017A01D0ECCD2211
:1057B000DD24EE24FF2413E0F694E794D794C794F5
:1057C0001A95D1F7922F93709295990F907EC92ACE
:1057D000C82ACC928EB1877C8EB96EB1822F8C7024
:1057E000782F770F770FDA01C90180729927AA27DE
:1057F000BB2702E0B695A795979587950A95D1F7AF
:10580000872B862B8EB9A59884B32071220F282B65
:1058100024BBA58DB68D9C9187A189238C93A58DE2
:10582000B68D9C9183A1892B8C93A18DB28D9C9177
:1058300081A1892B8C93DF91CF911F910F91FF90C4
:10584000EF90DF90CF90BF90AF9008950F931F938C
:10585000CF93DF93EB010E94893A8B012FDB8F3FBF
:1058600049F00E94893A601B710B6C177D07B0F3F9
:1058700080E001C081E0DF91CF911F910F910895E9
:10588000CF93DF93EC018D81882379F18C8187FFA1
:1058900028C06E857F858889998941E00E942523EB
:1058A000882319F1EA8980E2E89FF0011124E75882
:1058B000F84F3097D1F08D81823040F48B899C89EC
:1058C000AD89BE89848F958FA68FB78F8F89988D6C
:1058D000A98DBA8D938F828FB58BA48B8C818F7796
:1058E0008C83DF91CF910C94EA2280E0DF91CF91FD
:1058F00008958F929F92AF92BF92CF92DF92EF92D4
:10590000FF920F931F93CF93DF93EC018D81811151
:1059100002C080E078C00B891C892D893E8904175C
:10592000150726073707A8F36A017B01823029F49F
:10593000CA86DB86EC86FD860DC0C114D104E10465
:10594000F10451F41E821F82188619861A861B865E
:105950001C861D8681E057C08A849B84AC84BD84EC
:10596000EB8DFC8D258530E0275F3F4FB501A4010D
:105970004150510961097109022E04C0769567955D
:10598000579547950A94D2F7D701C6010197A10907
:10599000B10904C0B695A795979587952A95D2F732
:1059A00084179507A607B70720F089288A288B282F
:1059B00071F44F89588D698D7A8D4E835F83688726
:1059C00079874C015D018E010A5F1F4F16C0841B51
:1059D000950BA60BB70BF5CF4E815F816885798556
:1059E00098018B8D9C8D0E940D2491E0891A91085D
:1059F000A108B108882309F48CCF81149104A10473
:105A0000B10451F795CFDF91CF911F910F91FF9086
:105A1000EF90DF90CF90BF90AF909F908F900895C0
:105A20008F929F92AF92BF92CF92DF92EF92FF92AE
:105A30000F931F93CF93DF9300D01F92CDB7DEB7A4
:105A40007C0180E2689FF0011124E758F84F9385AC
:105A5000917121F0842F827409F08EC0142FD70128
:105A600052966C9352974091790250917A026091CC
:105A70007B0270917C021E964D935D936D937C9397
:105A800051974489558960E070E0BA015527442751
:105A9000828D938DA0E0B0E0482B592B6A2B7B2B95
:105AA000D70157964D935D936D937C935A97838559
:105AB000887159F4848D958DA68DB78DF701838BF0
:105AC000948BA58BB68B81E012C0803109F054C055
:105AD00097012D5E3F4FD7015B968D919C915C970E
